{
  "transactions": [
    {
      "hash": "0xb66ac792e1a6e76f4ceeeb4315514d3888b5c6862e28cbd148be4071f544ee38",
      "transactionType": "CALL",
      "contractName": null,
      "contractAddress": "0x7f724e889cb28e3ba837bfb58b2bec8440708ba2",
      "function": "initialize(bytes,bytes)",
      "arguments": [
        "0x0000000000000000000000000000000000000000000000000000000000000020000000000000000000000000000000000000000000000000000000000000000100000000000000000000000000000000000000000000000000000000000000200000000000000000000000000000000000000000000000000000000000000020000000000000000000000000818ee932f9340cfe70b44d231f6e8474a38ca9b4",
        "0x7536664ce09fb7515607ba5c4a60a5f4272c4e779db531a78ce90925ccdea6a667b2ad492c9aa9defc7b950e8a9f31ebe8598b16185b437d5a3a6884175ae7d81c"
      ],
      "transaction": {
        "from": "0x7f724e889cb28e3ba837bfb58b2bec8440708ba2",
        "to": "0x7f724e889cb28e3ba837bfb58b2bec8440708ba2",
        "gas": "0x2dc2d",
        "value": "0x0",
        "input": "0x1af19f770000000000000000000000000000000000000000000000000000000000000040000000000000000000000000000000000000000000000000000000000000010000000000000000000000000000000000000000000000000000000000000000a00000000000000000000000000000000000000000000000000000000000000020000000000000000000000000000000000000000000000000000000000000000100000000000000000000000000000000000000000000000000000000000000200000000000000000000000000000000000000000000000000000000000000020000000000000000000000000818ee932f9340cfe70b44d231f6e8474a38ca9b400000000000000000000000000000000000000000000000000000000000000417536664ce09fb7515607ba5c4a60a5f4272c4e779db531a78ce90925ccdea6a667b2ad492c9aa9defc7b950e8a9f31ebe8598b16185b437d5a3a6884175ae7d81c00000000000000000000000000000000000000000000000000000000000000",
        "nonce": "0x2",
        "chainId": "0xde9fb"
      },
      "additionalContracts": [],
      "isFixedGasLimit": false
    },
    {
      "hash": "0xce41b39c3aae0df3ce6d8109b1020cfa2101684e3b8102a16f069ba7293366ce",
      "transactionType": "CALL",
      "contractName": null,
      "contractAddress": "0x7f724e889cb28e3ba837bfb58b2bec8440708ba2",
      "function": "execute(address,uint256,bytes)",
      "arguments": [
        "0xe3E2D653Ef572e76fD3CC43C452519A23c06a408",
        "100000000000000",
        "0x"
      ],
      "transaction": {
        "from": "0x818ee932f9340cfe70b44d231f6e8474a38ca9b4",
        "to": "0x7f724e889cb28e3ba837bfb58b2bec8440708ba2",
        "gas": "0xe543",
        "value": "0x0",
        "input": "0xb61d27f6000000000000000000000000e3e2d653ef572e76fd3cc43c452519a23c06a40800000000000000000000000000000000000000000000000000005af3107a400000000000000000000000000000000000000000000000000000000000000000600000000000000000000000000000000000000000000000000000000000000000",
        "nonce": "0x6",
        "chainId": "0xde9fb"
      },
      "additionalContracts": [],
      "isFixedGasLimit": false
    }
  ],
  "receipts": [
    {
      "status": "0x1",
      "cumulativeGasUsed": "0x29ff1",
      "logs": [
        {
          "address": "0x7f724e889cb28e3ba837bfb58b2bec8440708ba2",
          "topics": [
            "0x38109edc26e166b5579352ce56a50813177eb25208fd90d61f2f378386220220",
            "0x0000000000000000000000000000000000000000000000000000000000000000"
          ],
          "data": "0x00000000000000000000000000000000000000000000000000000000000000200000000000000000000000000000000000000000000000000000000000000020000000000000000000000000818ee932f9340cfe70b44d231f6e8474a38ca9b4",
          "blockHash": "0x163aadba25e007f61ca37f20c9cd1873bdfb74ffa776047f6dc125476afd8cd7",
          "blockNumber": "0x76d623",
          "blockTimestamp": "0x677f1673",
          "transactionHash": "0xb66ac792e1a6e76f4ceeeb4315514d3888b5c6862e28cbd148be4071f544ee38",
          "transactionIndex": "0x1",
          "logIndex": "0x0",
          "removed": false
        }
      ],
      "logsBloom": "0x00000000000000000000000000000000000000000000000000000000000000000000000000000000000000000000000100000000000000000000000000000002000000000000000000000000000000000000000000000000000000000000000000000000020000000000000000000800000000000000000000000000000000008000000000000000000000000000000000000000000000000000000000000000000000000000000000000000000000000000000000000000000000000000000000000000000000800000000000000000000000000000000000000000000020000000800800000000000000000000000000000000000000000000000000000000",
      "type": "0x2",
      "transactionHash": "0xb66ac792e1a6e76f4ceeeb4315514d3888b5c6862e28cbd148be4071f544ee38",
      "transactionIndex": "0x1",
      "blockHash": "0x163aadba25e007f61ca37f20c9cd1873bdfb74ffa776047f6dc125476afd8cd7",
      "blockNumber": "0x76d623",
      "gasUsed": "0x1f4a3",
      "effectiveGasPrice": "0xfd",
      "from": "0x7f724e889cb28e3ba837bfb58b2bec8440708ba2",
      "to": "0x7f724e889cb28e3ba837bfb58b2bec8440708ba2",
      "contractAddress": null,
      "l1BaseFeeScalar": "0xa6fe0",
      "l1BlobBaseFee": "0x1b352",
      "l1BlobBaseFeeScalar": "0x0",
      "l1Fee": "0x438cddd5f58",
      "l1GasPrice": "0x91f17e8d",
      "l1GasUsed": "0xad3"
    },
    {
      "status": "0x1",
      "cumulativeGasUsed": "0x14811",
      "logs": [],
      "logsBloom": "0x00000000000000000000000000000000000000000000000000000000000000000000000000000000000000000000000000000000000000000000000000000000000000000000000000000000000000000000000000000000000000000000000000000000000000000000000000000000000000000000000000000000000000000000000000000000000000000000000000000000000000000000000000000000000000000000000000000000000000000000000000000000000000000000000000000000000000000000000000000000000000000000000000000000000000000000000000000000000000000000000000000000000000000000000000000000",
      "type": "0x2",
      "transactionHash": "0xce41b39c3aae0df3ce6d8109b1020cfa2101684e3b8102a16f069ba7293366ce",
      "transactionIndex": "0x1",
      "blockHash": "0xe0ca82b3cbb93049b88f2d50ec458a2e9c052cbf48181a5e8ba8b70bb8d7baa1",
      "blockNumber": "0x76d625",
      "gasUsed": "0x9cc3",
      "effectiveGasPrice": "0xfd",
      "from": "0x818ee932f9340cfe70b44d231f6e8474a38ca9b4",
      "to": "0x7f724e889cb28e3ba837bfb58b2bec8440708ba2",
      "contractAddress": null,
      "l1BaseFeeScalar": "0xa6fe0",
      "l1BlobBaseFee": "0x1b352",
      "l1BlobBaseFeeScalar": "0x0",
      "l1Fee": "0x26fe8636793",
      "l1GasPrice": "0x91f17e8d",
      "l1GasUsed": "0x640"
    }
  ],
  "libraries": [],
  "pending": [],
  "returns": {},
  "timestamp": 1736382070,
  "chain": 911867,
  "commit": "779ef5d"
}