{
  "transactions": [
    {
      "hash": "0x4522ca6a0cab309033d2f7dc33f56f3478fb11ea3f7c4535e79420d170013df0",
      "transactionType": "CALL",
      "contractName": null,
      "contractAddress": "0x8026fce2824cfe769515861899c15e4ed367dc3b",
      "function": "initialize(bytes,bytes)",
      "arguments": [
        "0x0000000000000000000000000000000000000000000000000000000000000020000000000000000000000000000000000000000000000000000000000000000100000000000000000000000000000000000000000000000000000000000000200000000000000000000000000000000000000000000000000000000000000020000000000000000000000000818ee932f9340cfe70b44d231f6e8474a38ca9b4",
        "0x79783cddd75cea1de82f1e6894fffdeeab42a75cec5ea665da2316c2e3284c404d708803c70c1aaad4a4d3d039543c86e809b552364535bbefd34bcbcf41e53f1c"
      ],
      "transaction": {
        "from": "0x8026fce2824cfe769515861899c15e4ed367dc3b",
        "to": "0x8026fce2824cfe769515861899c15e4ed367dc3b",
        "gas": "0x2dc2d",
        "value": "0x0",
        "input": "0x1af19f770000000000000000000000000000000000000000000000000000000000000040000000000000000000000000000000000000000000000000000000000000010000000000000000000000000000000000000000000000000000000000000000a00000000000000000000000000000000000000000000000000000000000000020000000000000000000000000000000000000000000000000000000000000000100000000000000000000000000000000000000000000000000000000000000200000000000000000000000000000000000000000000000000000000000000020000000000000000000000000818ee932f9340cfe70b44d231f6e8474a38ca9b4000000000000000000000000000000000000000000000000000000000000004179783cddd75cea1de82f1e6894fffdeeab42a75cec5ea665da2316c2e3284c404d708803c70c1aaad4a4d3d039543c86e809b552364535bbefd34bcbcf41e53f1c00000000000000000000000000000000000000000000000000000000000000",
        "nonce": "0x2",
        "chainId": "0xde9fb"
      },
      "additionalContracts": [],
      "isFixedGasLimit": false
    },
    {
      "hash": "0x240fccc715f2c47590d7dcfbc6754eafc2cf202010708959bcae02ad5a8c2108",
      "transactionType": "CALL",
      "contractName": null,
      "contractAddress": "0x8026fce2824cfe769515861899c15e4ed367dc3b",
      "function": "execute(address,uint256,bytes)",
      "arguments": [
        "0xe3E2D653Ef572e76fD3CC43C452519A23c06a408",
        "100000000000000",
        "0x"
      ],
      "transaction": {
        "from": "0x818ee932f9340cfe70b44d231f6e8474a38ca9b4",
        "to": "0x8026fce2824cfe769515861899c15e4ed367dc3b",
        "gas": "0xe543",
        "value": "0x0",
        "input": "0xb61d27f6000000000000000000000000e3e2d653ef572e76fd3cc43c452519a23c06a40800000000000000000000000000000000000000000000000000005af3107a400000000000000000000000000000000000000000000000000000000000000000600000000000000000000000000000000000000000000000000000000000000000",
        "nonce": "0x5",
        "chainId": "0xde9fb"
      },
      "additionalContracts": [],
      "isFixedGasLimit": false
    }
  ],
  "receipts": [
    {
      "status": "0x1",
      "cumulativeGasUsed": "0x29fe5",
      "logs": [
        {
          "address": "0x8026fce2824cfe769515861899c15e4ed367dc3b",
          "topics": [
            "0x38109edc26e166b5579352ce56a50813177eb25208fd90d61f2f378386220220",
            "0x0000000000000000000000000000000000000000000000000000000000000000"
          ],
          "data": "0x00000000000000000000000000000000000000000000000000000000000000200000000000000000000000000000000000000000000000000000000000000020000000000000000000000000818ee932f9340cfe70b44d231f6e8474a38ca9b4",
          "blockHash": "0xb41dffb7d4036cb34c10abe507c6ec1a300f829256950af636559b2ecfe7373c",
          "blockNumber": "0x76c9bc",
          "blockTimestamp": "0x677f0a0c",
          "transactionHash": "0x4522ca6a0cab309033d2f7dc33f56f3478fb11ea3f7c4535e79420d170013df0",
          "transactionIndex": "0x1",
          "logIndex": "0x0",
          "removed": false
        }
      ],
      "logsBloom": "0x00000000000000000000000000000000000000000000000000000000000000000000000000000000000000000000000000000000000000000000000000000000000000000000000000000000000000000000000000000000000000000000000000000000020000000000000000000800000000000000000000000000000000008000000000400000000000000000000000000000000000000000000000000000000000000000000000000000000000000000800000000000000000000000000000000000000000800000000000000000004000000000000000000000000020000000800000000000000000000000000000000000000000000000000000000000",
      "type": "0x2",
      "transactionHash": "0x4522ca6a0cab309033d2f7dc33f56f3478fb11ea3f7c4535e79420d170013df0",
      "transactionIndex": "0x1",
      "blockHash": "0xb41dffb7d4036cb34c10abe507c6ec1a300f829256950af636559b2ecfe7373c",
      "blockNumber": "0x76c9bc",
      "gasUsed": "0x1f4a3",
      "effectiveGasPrice": "0xfd",
      "from": "0x8026fce2824cfe769515861899c15e4ed367dc3b",
      "to": "0x8026fce2824cfe769515861899c15e4ed367dc3b",
      "contractAddress": null,
      "l1BaseFeeScalar": "0xa6fe0",
      "l1BlobBaseFee": "0x9cd9",
      "l1BlobBaseFeeScalar": "0x0",
      "l1Fee": "0x395ade22486",
      "l1GasPrice": "0x7bea8d9e",
      "l1GasUsed": "0xad3"
    },
    {
      "status": "0x1",
      "cumulativeGasUsed": "0x14805",
      "logs": [],
      "logsBloom": "0x00000000000000000000000000000000000000000000000000000000000000000000000000000000000000000000000000000000000000000000000000000000000000000000000000000000000000000000000000000000000000000000000000000000000000000000000000000000000000000000000000000000000000000000000000000000000000000000000000000000000000000000000000000000000000000000000000000000000000000000000000000000000000000000000000000000000000000000000000000000000000000000000000000000000000000000000000000000000000000000000000000000000000000000000000000000",
      "type": "0x2",
      "transactionHash": "0x240fccc715f2c47590d7dcfbc6754eafc2cf202010708959bcae02ad5a8c2108",
      "transactionIndex": "0x1",
      "blockHash": "0x2133d7ae8e00619d0932c2f7da29ce193b85230f0ed602ec0bba255eb2faceee",
      "blockNumber": "0x76c9be",
      "gasUsed": "0x9cc3",
      "effectiveGasPrice": "0xfd",
      "from": "0x818ee932f9340cfe70b44d231f6e8474a38ca9b4",
      "to": "0x8026fce2824cfe769515861899c15e4ed367dc3b",
      "contractAddress": null,
      "l1BaseFeeScalar": "0xa6fe0",
      "l1BlobBaseFee": "0x9cd9",
      "l1BlobBaseFeeScalar": "0x0",
      "l1Fee": "0x211bdea36a6",
      "l1GasPrice": "0x7bea8d9e",
      "l1GasUsed": "0x640"
    }
  ],
  "libraries": [],
  "pending": [],
  "returns": {},
  "timestamp": 1736378895,
  "chain": 911867,
  "commit": "ac1b254"
}