{
  "transactions": [
    {
      "hash": "0xd0e8c8e8827f4b5f6a99e4d9221b7df6f1b817b678e984552ddd8c67ce13fdbc",
      "transactionType": "CALL",
      "contractName": null,
      "contractAddress": "0x818ee932f9340cfe70b44d231f6e8474a38ca9b4",
      "function": "initialize(bytes,bytes)",
      "arguments": [
        "0x0000000000000000000000000000000000000000000000000000000000000020000000000000000000000000000000000000000000000000000000000000000100000000000000000000000000000000000000000000000000000000000000200000000000000000000000000000000000000000000000000000000000000020000000000000000000000000818ee932f9340cfe70b44d231f6e8474a38ca9b4",
        "0x1c14ae21572f8bd3058ad7b41ead11d235d066d564745aec804dc092f4900bbf7ca4bcaacf53f5af12d5ec20f43ae04ace98a1cb8af18619581f5a5b44090bec1c"
      ],
      "transaction": {
        "from": "0x818ee932f9340cfe70b44d231f6e8474a38ca9b4",
        "to": "0x818ee932f9340cfe70b44d231f6e8474a38ca9b4",
        "gas": "0x2dc2d",
        "value": "0x0",
        "input": "0x1af19f770000000000000000000000000000000000000000000000000000000000000040000000000000000000000000000000000000000000000000000000000000010000000000000000000000000000000000000000000000000000000000000000a00000000000000000000000000000000000000000000000000000000000000020000000000000000000000000000000000000000000000000000000000000000100000000000000000000000000000000000000000000000000000000000000200000000000000000000000000000000000000000000000000000000000000020000000000000000000000000818ee932f9340cfe70b44d231f6e8474a38ca9b400000000000000000000000000000000000000000000000000000000000000411c14ae21572f8bd3058ad7b41ead11d235d066d564745aec804dc092f4900bbf7ca4bcaacf53f5af12d5ec20f43ae04ace98a1cb8af18619581f5a5b44090bec1c00000000000000000000000000000000000000000000000000000000000000",
        "nonce": "0x2",
        "chainId": "0xde9fb"
      },
      "additionalContracts": [],
      "isFixedGasLimit": false
    }
  ],
  "receipts": [
    {
      "status": "0x1",
      "cumulativeGasUsed": "0x29fd9",
      "logs": [
        {
          "address": "0x818ee932f9340cfe70b44d231f6e8474a38ca9b4",
          "topics": [
            "0x38109edc26e166b5579352ce56a50813177eb25208fd90d61f2f378386220220",
            "0x0000000000000000000000000000000000000000000000000000000000000000"
          ],
          "data": "0x00000000000000000000000000000000000000000000000000000000000000200000000000000000000000000000000000000000000000000000000000000020000000000000000000000000818ee932f9340cfe70b44d231f6e8474a38ca9b4",
          "blockHash": "0xa4fcd3cae3d95f8c9d6cd77b494522cf9e3cb4efbf0ffed39eb5081e69fa0a0b",
          "blockNumber": "0x76644c",
          "blockTimestamp": "0x677ea49c",
          "transactionHash": "0xd0e8c8e8827f4b5f6a99e4d9221b7df6f1b817b678e984552ddd8c67ce13fdbc",
          "transactionIndex": "0x1",
          "logIndex": "0x0",
          "removed": false
        }
      ],
      "logsBloom": "0x00000000000000000000000000000000000000000000000000000000000000000000000000000000000000000000000000000000000000000000000000000080000000000000000000000000000000000000000000000000000000000000000000000000020000000000000000000800000000000000000000000008000000008000000000000000000000000000000000000000000000000000000000000000000000000000000000000000000000000000000000000000000000000000001000000000000000800000000000000000000000000000000000000000000020000000800000000000000000000000000000000000000000000000000000000000",
      "type": "0x2",
      "transactionHash": "0xd0e8c8e8827f4b5f6a99e4d9221b7df6f1b817b678e984552ddd8c67ce13fdbc",
      "transactionIndex": "0x1",
      "blockHash": "0xa4fcd3cae3d95f8c9d6cd77b494522cf9e3cb4efbf0ffed39eb5081e69fa0a0b",
      "blockNumber": "0x76644c",
      "gasUsed": "0x1f4a3",
      "effectiveGasPrice": "0xfd",
      "from": "0x818ee932f9340cfe70b44d231f6e8474a38ca9b4",
      "to": "0x818ee932f9340cfe70b44d231f6e8474a38ca9b4",
      "contractAddress": null,
      "l1BaseFeeScalar": "0xa6fe0",
      "l1BlobBaseFee": "0x42",
      "l1BlobBaseFeeScalar": "0x0",
      "l1Fee": "0x22d45950ba7f",
      "l1GasPrice": "0x5269ae564",
      "l1GasUsed": "0x9e2"
    }
  ],
  "libraries": [],
  "pending": [],
  "returns": {},
  "timestamp": 1736352925,
  "chain": 911867,
  "commit": "6ebe723"
}