{
  "transactions": [
    {
      "hash": "0x92e06326ebc8b20e71a040300624228aa82f1d50b52029d227ef53b03e60c2ae",
      "transactionType": "CALL",
      "contractName": null,
      "contractAddress": "0x70997970c51812dc3a010c7d01b50e0d17dc79c8",
      "function": "initialize(bytes,bytes)",
      "arguments": [
        "0x00000000000000000000000000000000000000000000000000000000000000200000000000000000000000000000000000000000000000000000000000000001000000000000000000000000000000000000000000000000000000000000002000000000000000000000000000000000000000000000000000000000000000200000000000000000000000003c44cdddb6a900fa2b585dd299e03d12fa4293bc",
        "0x948e79294826dcc0a79cdce0926d50320507b69c5681b1ed86f93b238170345e33bdabe15e57f0ea0f2f08c48df50225cc8d5112b58c7a902803dea26c3393b11b"
      ],
      "transaction": {
        "from": "0x70997970c51812dc3a010c7d01b50e0d17dc79c8",
        "to": "0x70997970c51812dc3a010c7d01b50e0d17dc79c8",
        "gas": "0x2b370",
        "value": "0x0",
        "input": "0x1af19f770000000000000000000000000000000000000000000000000000000000000040000000000000000000000000000000000000000000000000000000000000010000000000000000000000000000000000000000000000000000000000000000a000000000000000000000000000000000000000000000000000000000000000200000000000000000000000000000000000000000000000000000000000000001000000000000000000000000000000000000000000000000000000000000002000000000000000000000000000000000000000000000000000000000000000200000000000000000000000003c44cdddb6a900fa2b585dd299e03d12fa4293bc0000000000000000000000000000000000000000000000000000000000000041948e79294826dcc0a79cdce0926d50320507b69c5681b1ed86f93b238170345e33bdabe15e57f0ea0f2f08c48df50225cc8d5112b58c7a902803dea26c3393b11b00000000000000000000000000000000000000000000000000000000000000",
        "nonce": "0x2",
        "chainId": "0x7a69"
      },
      "additionalContracts": [],
      "isFixedGasLimit": false
    },
    {
      "hash": "0xbdc3b720d758c5a4c6404c8001a942c1948486c6b078224e18724201ce07c341",
      "transactionType": "CALL",
      "contractName": null,
      "contractAddress": "0x70997970c51812dc3a010c7d01b50e0d17dc79c8",
      "function": "execute(address,uint256,bytes)",
      "arguments": [
        "0xf39Fd6e51aad88F6F4ce6aB8827279cffFb92266",
        "1000000000000000",
        "0x"
      ],
      "transaction": {
        "from": "0x3c44cdddb6a900fa2b585dd299e03d12fa4293bc",
        "to": "0x70997970c51812dc3a010c7d01b50e0d17dc79c8",
        "gas": "0xd896",
        "value": "0x0",
        "input": "0xb61d27f6000000000000000000000000f39fd6e51aad88f6f4ce6ab8827279cfffb9226600000000000000000000000000000000000000000000000000038d7ea4c6800000000000000000000000000000000000000000000000000000000000000000600000000000000000000000000000000000000000000000000000000000000000",
        "nonce": "0x0",
        "chainId": "0x7a69"
      },
      "additionalContracts": [],
      "isFixedGasLimit": false
    }
  ],
  "receipts": [
    {
      "status": "0x1",
      "cumulativeGasUsed": "0x1f497",
      "logs": [
        {
          "address": "0x70997970c51812dc3a010c7d01b50e0d17dc79c8",
          "topics": [
            "0x38109edc26e166b5579352ce56a50813177eb25208fd90d61f2f378386220220",
            "0x0000000000000000000000000000000000000000000000000000000000000000"
          ],
          "data": "0x000000000000000000000000000000000000000000000000000000000000002000000000000000000000000000000000000000000000000000000000000000200000000000000000000000003c44cdddb6a900fa2b585dd299e03d12fa4293bc",
          "blockHash": "0xf59e5a2d28513bd2b201da2240eea5083c2d0a256e529a9fc5097165cf52a63e",
          "blockNumber": "0x4",
          "blockTimestamp": "0x677f0366",
          "transactionHash": "0x92e06326ebc8b20e71a040300624228aa82f1d50b52029d227ef53b03e60c2ae",
          "transactionIndex": "0x0",
          "logIndex": "0x0",
          "removed": false
        }
      ],
      "logsBloom": "0x00000000000000000000000000000000000000000000000000000000000000000000000000000000000000000000000000000000004000000000000000000020000000000000000000000000000000000000000000000000000000000000000000000000020000000000000000000800000000000000000000000000000000008000000000000000000000000000000000000000000000000000000000000000000000000000000000000000000000000000000000000000000000000000000000000000000000800000000000000000000000000000000000000000000020000000800000000000000000000000000000000000000000000002000000000000",
      "type": "0x2",
      "transactionHash": "0x92e06326ebc8b20e71a040300624228aa82f1d50b52029d227ef53b03e60c2ae",
      "transactionIndex": "0x0",
      "blockHash": "0xf59e5a2d28513bd2b201da2240eea5083c2d0a256e529a9fc5097165cf52a63e",
      "blockNumber": "0x4",
      "gasUsed": "0x1f497",
      "effectiveGasPrice": "0x29194be3",
      "blobGasPrice": "0x1",
      "from": "0x70997970c51812dc3a010c7d01b50e0d17dc79c8",
      "to": "0x70997970c51812dc3a010c7d01b50e0d17dc79c8",
      "contractAddress": null
    },
    {
      "status": "0x1",
      "cumulativeGasUsed": "0x9ccf",
      "logs": [],
      "logsBloom": "0x00000000000000000000000000000000000000000000000000000000000000000000000000000000000000000000000000000000000000000000000000000000000000000000000000000000000000000000000000000000000000000000000000000000000000000000000000000000000000000000000000000000000000000000000000000000000000000000000000000000000000000000000000000000000000000000000000000000000000000000000000000000000000000000000000000000000000000000000000000000000000000000000000000000000000000000000000000000000000000000000000000000000000000000000000000000",
      "type": "0x2",
      "transactionHash": "0xbdc3b720d758c5a4c6404c8001a942c1948486c6b078224e18724201ce07c341",
      "transactionIndex": "0x0",
      "blockHash": "0xbb86abd4eebf9f2e95ecf234251301e3a918ea4916b382d896038198e48f5ebb",
      "blockNumber": "0x5",
      "gasUsed": "0x9ccf",
      "effectiveGasPrice": "0x24015ecf",
      "blobGasPrice": "0x1",
      "from": "0x3c44cdddb6a900fa2b585dd299e03d12fa4293bc",
      "to": "0x70997970c51812dc3a010c7d01b50e0d17dc79c8",
      "contractAddress": null
    }
  ],
  "libraries": [],
  "pending": [],
  "returns": {},
  "timestamp": 1736377190,
  "chain": 31337,
  "commit": "e368f9a"
}