{
  "transactions": [
    {
      "hash": "0x5f7fb392d36c45a50a92f60d1060557caf2582cc99ad6a46ec442bc887286979",
      "transactionType": "CALL",
      "contractName": null,
      "contractAddress": "0x70997970c51812dc3a010c7d01b50e0d17dc79c8",
      "function": "initialize(bytes,bytes)",
      "arguments": [
        "0x00000000000000000000000000000000000000000000000000000000000000200000000000000000000000000000000000000000000000000000000000000001000000000000000000000000000000000000000000000000000000000000002000000000000000000000000000000000000000000000000000000000000000200000000000000000000000003c44cdddb6a900fa2b585dd299e03d12fa4293bc",
        "0x948e79294826dcc0a79cdce0926d50320507b69c5681b1ed86f93b238170345e33bdabe15e57f0ea0f2f08c48df50225cc8d5112b58c7a902803dea26c3393b11b"
      ],
      "transaction": {
        "from": "0x70997970c51812dc3a010c7d01b50e0d17dc79c8",
        "to": "0x70997970c51812dc3a010c7d01b50e0d17dc79c8",
        "gas": "0x2b370",
        "value": "0x0",
        "input": "0x1af19f770000000000000000000000000000000000000000000000000000000000000040000000000000000000000000000000000000000000000000000000000000010000000000000000000000000000000000000000000000000000000000000000a000000000000000000000000000000000000000000000000000000000000000200000000000000000000000000000000000000000000000000000000000000001000000000000000000000000000000000000000000000000000000000000002000000000000000000000000000000000000000000000000000000000000000200000000000000000000000003c44cdddb6a900fa2b585dd299e03d12fa4293bc0000000000000000000000000000000000000000000000000000000000000041948e79294826dcc0a79cdce0926d50320507b69c5681b1ed86f93b238170345e33bdabe15e57f0ea0f2f08c48df50225cc8d5112b58c7a902803dea26c3393b11b00000000000000000000000000000000000000000000000000000000000000",
        "nonce": "0x2",
        "chainId": "0x7a69"
      },
      "additionalContracts": [],
      "isFixedGasLimit": false
    },
    {
      "hash": "0xb33b3688c82cb67c20b1ea4159eeed29090e1019cf53cfe78a06fa1b31ab0578",
      "transactionType": "CALL",
      "contractName": null,
      "contractAddress": "0x70997970c51812dc3a010c7d01b50e0d17dc79c8",
      "function": "execute(address,uint256,bytes)",
      "arguments": [
        "0xf39Fd6e51aad88F6F4ce6aB8827279cffFb92266",
        "100000000000000",
        "0x"
      ],
      "transaction": {
        "from": "0x3c44cdddb6a900fa2b585dd299e03d12fa4293bc",
        "to": "0x70997970c51812dc3a010c7d01b50e0d17dc79c8",
        "gas": "0xe543",
        "value": "0x0",
        "input": "0xb61d27f6000000000000000000000000f39fd6e51aad88f6f4ce6ab8827279cfffb9226600000000000000000000000000000000000000000000000000005af3107a400000000000000000000000000000000000000000000000000000000000000000600000000000000000000000000000000000000000000000000000000000000000",
        "nonce": "0x0",
        "chainId": "0x7a69"
      },
      "additionalContracts": [],
      "isFixedGasLimit": false
    }
  ],
  "receipts": [
    {
      "status": "0x1",
      "cumulativeGasUsed": "0x1f497",
      "logs": [
        {
          "address": "0x70997970c51812dc3a010c7d01b50e0d17dc79c8",
          "topics": [
            "0x38109edc26e166b5579352ce56a50813177eb25208fd90d61f2f378386220220",
            "0x0000000000000000000000000000000000000000000000000000000000000000"
          ],
          "data": "0x000000000000000000000000000000000000000000000000000000000000002000000000000000000000000000000000000000000000000000000000000000200000000000000000000000003c44cdddb6a900fa2b585dd299e03d12fa4293bc",
          "blockHash": "0xdabd36f176eb2d7b8a3dcc46deb7098e387e8fecec543a7e676df1105b40969a",
          "blockNumber": "0xa",
          "blockTimestamp": "0x678a8c9c",
          "transactionHash": "0x5f7fb392d36c45a50a92f60d1060557caf2582cc99ad6a46ec442bc887286979",
          "transactionIndex": "0x0",
          "logIndex": "0x0",
          "removed": false
        }
      ],
      "logsBloom": "0x00000000000000000000000000000000000000000000000000000000000000000000000000000000000000000000000000000000004000000000000000000020000000000000000000000000000000000000000000000000000000000000000000000000020000000000000000000800000000000000000000000000000000008000000000000000000000000000000000000000000000000000000000000000000000000000000000000000000000000000000000000000000000000000000000000000000000800000000000000000000000000000000000000000000020000000800000000000000000000000000000000000000000000002000000000000",
      "type": "0x2",
      "transactionHash": "0x5f7fb392d36c45a50a92f60d1060557caf2582cc99ad6a46ec442bc887286979",
      "transactionIndex": "0x0",
      "blockHash": "0xdabd36f176eb2d7b8a3dcc46deb7098e387e8fecec543a7e676df1105b40969a",
      "blockNumber": "0xa",
      "gasUsed": "0x1f497",
      "effectiveGasPrice": "0x4e1a783e",
      "blobGasPrice": "0x1",
      "from": "0x70997970c51812dc3a010c7d01b50e0d17dc79c8",
      "to": "0x70997970c51812dc3a010c7d01b50e0d17dc79c8",
      "contractAddress": null
    },
    {
      "status": "0x1",
      "cumulativeGasUsed": "0x9cc3",
      "logs": [],
      "logsBloom": "0x00000000000000000000000000000000000000000000000000000000000000000000000000000000000000000000000000000000000000000000000000000000000000000000000000000000000000000000000000000000000000000000000000000000000000000000000000000000000000000000000000000000000000000000000000000000000000000000000000000000000000000000000000000000000000000000000000000000000000000000000000000000000000000000000000000000000000000000000000000000000000000000000000000000000000000000000000000000000000000000000000000000000000000000000000000000",
      "type": "0x2",
      "transactionHash": "0xb33b3688c82cb67c20b1ea4159eeed29090e1019cf53cfe78a06fa1b31ab0578",
      "transactionIndex": "0x0",
      "blockHash": "0x844a4bc3dae3cfa5aaa6f169def6c2df6ef23c29cbceb8cc3f2711705ba24d4a",
      "blockNumber": "0xb",
      "gasUsed": "0x9cc3",
      "effectiveGasPrice": "0x4bcf9125",
      "blobGasPrice": "0x1",
      "from": "0x3c44cdddb6a900fa2b585dd299e03d12fa4293bc",
      "to": "0x70997970c51812dc3a010c7d01b50e0d17dc79c8",
      "contractAddress": null
    }
  ],
  "libraries": [],
  "pending": [],
  "returns": {},
  "timestamp": 1737133212,
  "chain": 31337,
  "commit": "8ca88ee"
}