{
  "transactions": [
    {
      "hash": "0x17b8a1b168f5037671ec7845bfa23136a7bd3313455c380d5ef4ee2a821ea086",
      "transactionType": "CALL",
      "contractName": null,
      "contractAddress": "0x70997970c51812dc3a010c7d01b50e0d17dc79c8",
      "function": "initialize(bytes,bytes)",
      "arguments": [
        "0x000000000000000000000000000000000000000000000000000000000000002000000000000000000000000000000000000000000000000000000000000000010000000000000000000000000000000000000000000000000000000000000020000000000000000000000000000000000000000000000000000000000000002000000000000000000000000070997970c51812dc3a010c7d01b50e0d17dc79c8",
        "0x5f27c43dde9c5cfc167468e7221b13c6ff8894fa3d596182eed9006810972a1650da1a20a31010ee0099d658d780363cd1cfd35e3679dd17852040fd89956af91c"
      ],
      "transaction": {
        "from": "0x70997970c51812dc3a010c7d01b50e0d17dc79c8",
        "to": "0x70997970c51812dc3a010c7d01b50e0d17dc79c8",
        "gas": "0x2dc0a",
        "value": "0x0",
        "input": "0x1af19f770000000000000000000000000000000000000000000000000000000000000040000000000000000000000000000000000000000000000000000000000000010000000000000000000000000000000000000000000000000000000000000000a0000000000000000000000000000000000000000000000000000000000000002000000000000000000000000000000000000000000000000000000000000000010000000000000000000000000000000000000000000000000000000000000020000000000000000000000000000000000000000000000000000000000000002000000000000000000000000070997970c51812dc3a010c7d01b50e0d17dc79c800000000000000000000000000000000000000000000000000000000000000415f27c43dde9c5cfc167468e7221b13c6ff8894fa3d596182eed9006810972a1650da1a20a31010ee0099d658d780363cd1cfd35e3679dd17852040fd89956af91c00000000000000000000000000000000000000000000000000000000000000",
        "nonce": "0x2",
        "chainId": "0x7a69"
      },
      "additionalContracts": [],
      "isFixedGasLimit": false
    }
  ],
  "receipts": [
    {
      "status": "0x1",
      "cumulativeGasUsed": "0x1f48b",
      "logs": [
        {
          "address": "0x70997970c51812dc3a010c7d01b50e0d17dc79c8",
          "topics": [
            "0x38109edc26e166b5579352ce56a50813177eb25208fd90d61f2f378386220220",
            "0x0000000000000000000000000000000000000000000000000000000000000000"
          ],
          "data": "0x0000000000000000000000000000000000000000000000000000000000000020000000000000000000000000000000000000000000000000000000000000002000000000000000000000000070997970c51812dc3a010c7d01b50e0d17dc79c8",
          "blockHash": "0xb2a2564998ee5afe9da9449a4590f2e6f4381532b7bd4ae1513d9daf8f0b08e1",
          "blockNumber": "0x4",
          "blockTimestamp": "0x677eb9ca",
          "transactionHash": "0x17b8a1b168f5037671ec7845bfa23136a7bd3313455c380d5ef4ee2a821ea086",
          "transactionIndex": "0x0",
          "logIndex": "0x0",
          "removed": false
        }
      ],
      "logsBloom": "0x00000000000000000000000000000000000000000000000000000000000000000000000000000000000000000000000000000000004000000000000000000020000000000000000000000000000000000000000000000000000000000000000000000000020000000000000000000800000000000000000000000000000000008000000000000000000000000000000000000000000000000000000000000000000000000000000000000000000000000000000000000000000000000000000000000000000000800000000000000000000000000000000000000000000020000000800000000000000000000000000000000000000000000002000000000000",
      "type": "0x2",
      "transactionHash": "0x17b8a1b168f5037671ec7845bfa23136a7bd3313455c380d5ef4ee2a821ea086",
      "transactionIndex": "0x0",
      "blockHash": "0xb2a2564998ee5afe9da9449a4590f2e6f4381532b7bd4ae1513d9daf8f0b08e1",
      "blockNumber": "0x4",
      "gasUsed": "0x1f48b",
      "effectiveGasPrice": "0x29194be3",
      "blobGasPrice": "0x1",
      "from": "0x70997970c51812dc3a010c7d01b50e0d17dc79c8",
      "to": "0x70997970c51812dc3a010c7d01b50e0d17dc79c8",
      "contractAddress": null
    }
  ],
  "libraries": [],
  "pending": [],
  "returns": {},
  "timestamp": 1736358346,
  "chain": 31337,
  "commit": "c795ba0"
}