{
  "transactions": [
    {
      "hash": "0x3c28221ade768639b87da21f6285680ef5e88ff2e5a67a719e901b14295846d5",
      "transactionType": "CALL",
      "contractName": null,
      "contractAddress": "0x70997970c51812dc3a010c7d01b50e0d17dc79c8",
      "function": "execute(address,uint256,bytes)",
      "arguments": [
        "0x3C44CdDdB6a900fa2b585dd299e03d12FA4293BC",
        "100000000000000000",
        "0x"
      ],
      "transaction": {
        "from": "0x70997970c51812dc3a010c7d01b50e0d17dc79c8",
        "to": "0x70997970c51812dc3a010c7d01b50e0d17dc79c8",
        "gas": "0xd8a3",
        "value": "0x0",
        "input": "0xb61d27f60000000000000000000000003c44cdddb6a900fa2b585dd299e03d12fa4293bc000000000000000000000000000000000000000000000000016345785d8a000000000000000000000000000000000000000000000000000000000000000000600000000000000000000000000000000000000000000000000000000000000000",
        "nonce": "0x4",
        "chainId": "0x7a69"
      },
      "additionalContracts": [],
      "isFixedGasLimit": false
    }
  ],
  "receipts": [
    {
      "status": "0x1",
      "cumulativeGasUsed": "0x9cd8",
      "logs": [],
      "logsBloom": "0x00000000000000000000000000000000000000000000000000000000000000000000000000000000000000000000000000000000000000000000000000000000000000000000000000000000000000000000000000000000000000000000000000000000000000000000000000000000000000000000000000000000000000000000000000000000000000000000000000000000000000000000000000000000000000000000000000000000000000000000000000000000000000000000000000000000000000000000000000000000000000000000000000000000000000000000000000000000000000000000000000000000000000000000000000000000",
      "type": "0x2",
      "transactionHash": "0x3c28221ade768639b87da21f6285680ef5e88ff2e5a67a719e901b14295846d5",
      "transactionIndex": "0x0",
      "blockHash": "0xc770f4f3d14a4992fdc2cccca27a12bbda975e8d1762a3f7c25b0dcffe653ee5",
      "blockNumber": "0x7",
      "gasUsed": "0x9cd8",
      "effectiveGasPrice": "0x1c56dd1c",
      "blobGasPrice": "0x1",
      "from": "0x70997970c51812dc3a010c7d01b50e0d17dc79c8",
      "to": "0x70997970c51812dc3a010c7d01b50e0d17dc79c8",
      "contractAddress": null
    }
  ],
  "libraries": [],
  "pending": [],
  "returns": {},
  "timestamp": 1736302599,
  "chain": 31337,
  "commit": "5f7e248"
}