{
  "transactions": [
    {
      "hash": "0x2995fb48f75970fe1d9ad1aef31d98429c7790021ab444802d48a9a71835e1b7",
      "transactionType": "CALL",
      "contractName": null,
      "contractAddress": "0x70997970c51812dc3a010c7d01b50e0d17dc79c8",
      "function": "execute(address,uint256,bytes)",
      "arguments": [
        "0x3C44CdDdB6a900fa2b585dd299e03d12FA4293BC",
        "100000000000000000",
        "0x"
      ],
      "transaction": {
        "from": "0x70997970c51812dc3a010c7d01b50e0d17dc79c8",
        "to": "0x70997970c51812dc3a010c7d01b50e0d17dc79c8",
        "gas": "0xd8a3",
        "value": "0x0",
        "input": "0xb61d27f60000000000000000000000003c44cdddb6a900fa2b585dd299e03d12fa4293bc000000000000000000000000000000000000000000000000016345785d8a000000000000000000000000000000000000000000000000000000000000000000600000000000000000000000000000000000000000000000000000000000000000",
        "nonce": "0x1",
        "chainId": "0x7a69"
      },
      "additionalContracts": [],
      "isFixedGasLimit": false
    }
  ],
  "receipts": [
    {
      "status": "0x1",
      "cumulativeGasUsed": "0x9cd8",
      "logs": [],
      "logsBloom": "0x00000000000000000000000000000000000000000000000000000000000000000000000000000000000000000000000000000000000000000000000000000000000000000000000000000000000000000000000000000000000000000000000000000000000000000000000000000000000000000000000000000000000000000000000000000000000000000000000000000000000000000000000000000000000000000000000000000000000000000000000000000000000000000000000000000000000000000000000000000000000000000000000000000000000000000000000000000000000000000000000000000000000000000000000000000000",
      "type": "0x2",
      "transactionHash": "0x2995fb48f75970fe1d9ad1aef31d98429c7790021ab444802d48a9a71835e1b7",
      "transactionIndex": "0x0",
      "blockHash": "0xea6839a415e34b556307debe5ba04ab090d3f8ae728e6e84854479ba1a0bad7d",
      "blockNumber": "0x4",
      "gasUsed": "0x9cd8",
      "effectiveGasPrice": "0x29196d44",
      "blobGasPrice": "0x1",
      "from": "0x70997970c51812dc3a010c7d01b50e0d17dc79c8",
      "to": "0x70997970c51812dc3a010c7d01b50e0d17dc79c8",
      "contractAddress": null
    }
  ],
  "libraries": [],
  "pending": [],
  "returns": {},
  "timestamp": 1736277742,
  "chain": 31337,
  "commit": "85242f5"
}